{
  "_format": "hh-sol-artifact-1",
  "contractName": "WavePortal",
  "sourceName": "contracts/WavePortal.sol",
  "abi": [
    {
      "inputs": [],
      "stateMutability": "nonpayable",
      "type": "constructor"
    },
    {
      "inputs": [],
      "name": "getTotalWaves",
      "outputs": [
        {
          "internalType": "uint256",
          "name": "",
          "type": "uint256"
        }
      ],
      "stateMutability": "view",
      "type": "function"
    },
    {
      "inputs": [],
      "name": "wave",
      "outputs": [],
      "stateMutability": "nonpayable",
      "type": "function"
    },
    {
      "inputs": [
        {
          "internalType": "address",
          "name": "",
          "type": "address"
        }
      ],
      "name": "wavesByAddress",
      "outputs": [
        {
          "internalType": "uint256",
          "name": "",
          "type": "uint256"
        }
      ],
      "stateMutability": "view",
      "type": "function"
    }
  ],
  "bytecode": "0x608060405234801561001057600080fd5b5061003c6040518060600160405280602d815260200161097a602d913961004160201b6102301760201c565b6101c4565b6100dd816040516024016100559190610142565b6040516020818303038152906040527f41304fac000000000000000000000000000000000000000000000000000000007bffffffffffffffffffffffffffffffffffffffffffffffffffffffff19166020820180517bffffffffffffffffffffffffffffffffffffffffffffffffffffffff83818316178352505050506100e060201b60201c565b50565b60008151905060006a636f6e736f6c652e6c6f679050602083016000808483855afa5050505050565b600061011482610164565b61011e818561016f565b935061012e818560208601610180565b610137816101b3565b840191505092915050565b6000602082019050818103600083015261015c8184610109565b905092915050565b600081519050919050565b600082825260208201905092915050565b60005b8381101561019e578082015181840152602081019050610183565b838111156101ad576000848401525b50505050565b6000601f19601f8301169050919050565b6107a7806101d36000396000f3fe608060405234801561001057600080fd5b50600436106100415760003560e01c80636fe15b44146100465780639a2cdc0814610050578063e1da71731461006e575b600080fd5b61004e61009e565b005b6100586101cd565b604051610065919061061e565b60405180910390f35b610088600480360381019061008391906104de565b610218565b604051610095919061061e565b60405180910390f35b60016000808282546100b09190610655565b9250508190555060018060003373ffffffffffffffffffffffffffffffffffffffff1673ffffffffffffffffffffffffffffffffffffffff16815260200190815260200160002060008282546101069190610655565b9250508190555061014c6040518060400160405280600a81526020017f2573206163656e6f752100000000000000000000000000000000000000000000815250336102c9565b6101cb6040518060400160405280601381526020017f25732074656d202573206163656e6f287329210000000000000000000000000081525033600160003373ffffffffffffffffffffffffffffffffffffffff1673ffffffffffffffffffffffffffffffffffffffff16815260200190815260200160002054610365565b565b60006102106040518060400160405280601b81526020017f54656d6f7320756d20746f74616c206465202564206163656e6f730000000000815250600054610404565b600054905090565b60016020528060005260406000206000915090505481565b6102c681604051602401610244919061055e565b6040516020818303038152906040527f41304fac000000000000000000000000000000000000000000000000000000007bffffffffffffffffffffffffffffffffffffffffffffffffffffffff19166020820180517bffffffffffffffffffffffffffffffffffffffffffffffffffffffff83818316178352505050506104a0565b50565b61036182826040516024016102df929190610580565b6040516020818303038152906040527f319af333000000000000000000000000000000000000000000000000000000007bffffffffffffffffffffffffffffffffffffffffffffffffffffffff19166020820180517bffffffffffffffffffffffffffffffffffffffffffffffffffffffff83818316178352505050506104a0565b5050565b6103ff83838360405160240161037d939291906105b0565b6040516020818303038152906040527f07c81217000000000000000000000000000000000000000000000000000000007bffffffffffffffffffffffffffffffffffffffffffffffffffffffff19166020820180517bffffffffffffffffffffffffffffffffffffffffffffffffffffffff83818316178352505050506104a0565b505050565b61049c828260405160240161041a9291906105ee565b6040516020818303038152906040527f9710a9d0000000000000000000000000000000000000000000000000000000007bffffffffffffffffffffffffffffffffffffffffffffffffffffffff19166020820180517bffffffffffffffffffffffffffffffffffffffffffffffffffffffff83818316178352505050506104a0565b5050565b60008151905060006a636f6e736f6c652e6c6f679050602083016000808483855afa5050505050565b6000813590506104d88161075a565b92915050565b6000602082840312156104f057600080fd5b60006104fe848285016104c9565b91505092915050565b610510816106ab565b82525050565b600061052182610639565b61052b8185610644565b935061053b8185602086016106e7565b61054481610749565b840191505092915050565b610558816106dd565b82525050565b600060208201905081810360008301526105788184610516565b905092915050565b6000604082019050818103600083015261059a8185610516565b90506105a96020830184610507565b9392505050565b600060608201905081810360008301526105ca8186610516565b90506105d96020830185610507565b6105e6604083018461054f565b949350505050565b600060408201905081810360008301526106088185610516565b9050610617602083018461054f565b9392505050565b6000602082019050610633600083018461054f565b92915050565b600081519050919050565b600082825260208201905092915050565b6000610660826106dd565b915061066b836106dd565b9250827fffffffffffffffffffffffffffffffffffffffffffffffffffffffffffffffff038211156106a05761069f61071a565b5b828201905092915050565b60006106b6826106bd565b9050919050565b600073ffffffffffffffffffffffffffffffffffffffff82169050919050565b6000819050919050565b60005b838110156107055780820151818401526020810190506106ea565b83811115610714576000848401525b50505050565b7f4e487b7100000000000000000000000000000000000000000000000000000000600052601160045260246000fd5b6000601f19601f8301169050919050565b610763816106ab565b811461076e57600080fd5b5056fea264697066735822122025cc8423be1e4a3d5043eb3b6acd61994209ae4db5e514d09fd295140c97182064736f6c63430008040033556562612c20657520736f7520756d20636f6e747261746f206520657520736f7520696e74656c6967656e7465",
  "linkReferences": {},
  "deployedLinkReferences": {}
}