{
  "_format": "hh-sol-artifact-1",
  "contractName": "WavePortal",
  "sourceName": "contracts/WavePortal.sol",
  "abi": [
    {
      "inputs": [],
      "stateMutability": "payable",
      "type": "constructor"
    },
    {
      "anonymous": false,
      "inputs": [
        {
          "indexed": true,
          "internalType": "address",
          "name": "from",
          "type": "address"
        },
        {
          "indexed": false,
          "internalType": "uint256",
          "name": "timestamp",
          "type": "uint256"
        },
        {
          "indexed": false,
          "internalType": "string",
          "name": "message",
          "type": "string"
        }
      ],
      "name": "NewWave",
      "type": "event"
    },
    {
      "inputs": [],
      "name": "getAllWaves",
      "outputs": [
        {
          "components": [
            {
              "internalType": "address",
              "name": "waver",
              "type": "address"
            },
            {
              "internalType": "string",
              "name": "message",
              "type": "string"
            },
            {
              "internalType": "uint256",
              "name": "timestamp",
              "type": "uint256"
            }
          ],
          "internalType": "struct WavePortal.Wave[]",
          "name": "",
          "type": "tuple[]"
        }
      ],
      "stateMutability": "view",
      "type": "function"
    },
    {
      "inputs": [],
      "name": "getTotalWaves",
      "outputs": [
        {
          "internalType": "uint256",
          "name": "",
          "type": "uint256"
        }
      ],
      "stateMutability": "view",
      "type": "function"
    },
    {
      "inputs": [
        {
          "internalType": "address",
          "name": "",
          "type": "address"
        }
      ],
      "name": "lastWavedAt",
      "outputs": [
        {
          "internalType": "uint256",
          "name": "",
          "type": "uint256"
        }
      ],
      "stateMutability": "view",
      "type": "function"
    },
    {
      "inputs": [
        {
          "internalType": "address",
          "name": "",
          "type": "address"
        }
      ],
      "name": "totalWavesByAddress",
      "outputs": [
        {
          "internalType": "uint256",
          "name": "",
          "type": "uint256"
        }
      ],
      "stateMutability": "view",
      "type": "function"
    },
    {
      "inputs": [
        {
          "internalType": "string",
          "name": "_message",
          "type": "string"
        }
      ],
      "name": "wave",
      "outputs": [],
      "stateMutability": "nonpayable",
      "type": "function"
    }
  ],
  "bytecode": "0x6080604052620000336040518060600160405280603d81526020016200177a603d91396200005b60201b620007881760201c565b60644442620000439190620001a8565b6200004f919062000245565b600181905550620002ec565b620000fb8160405160240162000072919062000168565b6040516020818303038152906040527f41304fac000000000000000000000000000000000000000000000000000000007bffffffffffffffffffffffffffffffffffffffffffffffffffffffff19166020820180517bffffffffffffffffffffffffffffffffffffffffffffffffffffffff8381831617835250505050620000fe60201b60201c565b50565b60008151905060006a636f6e736f6c652e6c6f679050602083016000808483855afa5050505050565b600062000134826200018c565b62000140818562000197565b9350620001528185602086016200020f565b6200015d81620002db565b840191505092915050565b6000602082019050818103600083015262000184818462000127565b905092915050565b600081519050919050565b600082825260208201905092915050565b6000620001b58262000205565b9150620001c28362000205565b9250827fffffffffffffffffffffffffffffffffffffffffffffffffffffffffffffffff03821115620001fa57620001f96200027d565b5b828201905092915050565b6000819050919050565b60005b838110156200022f57808201518184015260208101905062000212565b838111156200023f576000848401525b50505050565b6000620002528262000205565b91506200025f8362000205565b925082620002725762000271620002ac565b5b828206905092915050565b7f4e487b7100000000000000000000000000000000000000000000000000000000600052601160045260246000fd5b7f4e487b7100000000000000000000000000000000000000000000000000000000600052601260045260246000fd5b6000601f19601f8301169050919050565b61147e80620002fc6000396000f3fe608060405234801561001057600080fd5b50600436106100575760003560e01c806341a9e0201461005c578063449d46c01461008c5780639a2cdc08146100a8578063a42a4663146100c6578063bd43a908146100f6575b600080fd5b61007660048036038101906100719190610be0565b610114565b6040516100839190610ff9565b60405180910390f35b6100a660048036038101906100a19190610c09565b61012c565b005b6100b06105eb565b6040516100bd9190610ff9565b60405180910390f35b6100e060048036038101906100db9190610be0565b61061f565b6040516100ed9190610ff9565b60405180910390f35b6100fe610637565b60405161010b9190610e72565b60405180910390f35b60006020528060005260406000206000915090505481565b655af3107a400047811115610176576040517f08c379a000000000000000000000000000000000000000000000000000000000815260040161016d90610f99565b60405180910390fd5b42610384600260003373ffffffffffffffffffffffffffffffffffffffff1673ffffffffffffffffffffffffffffffffffffffff168152602001908152602001600020546101c4919061110b565b10610204576040517f08c379a00000000000000000000000000000000000000000000000000000000081526004016101fb90610fb9565b60405180910390fd5b42600260003373ffffffffffffffffffffffffffffffffffffffff1673ffffffffffffffffffffffffffffffffffffffff1681526020019081526020016000208190555060016000803373ffffffffffffffffffffffffffffffffffffffff1673ffffffffffffffffffffffffffffffffffffffff1681526020019081526020016000206000828254610297919061110b565b92505081905550600360405180606001604052803373ffffffffffffffffffffffffffffffffffffffff16815260200184815260200142815250908060018154018082558091505060019003906000526020600020906003020160009091909190915060008201518160000160006101000a81548173ffffffffffffffffffffffffffffffffffffffff021916908373ffffffffffffffffffffffffffffffffffffffff160217905550602082015181600101908051906020019061035d929190610ac0565b506040820151816002015550506064600154424461037b919061110b565b610385919061110b565b61038f9190611242565b6001819055506103d66040518060400160405280601681526020017f232072616e646f6d69636f2067657261646f3a20256400000000000000000000815250600154610821565b6032600154116104d95761041f6040518060400160405280600a81526020017f25732067616e686f752100000000000000000000000000000000000000000000815250336108bd565b6000655af3107a4000905060003373ffffffffffffffffffffffffffffffffffffffff168260405161045090610e5d565b60006040518083038185875af1925050503d806000811461048d576040519150601f19603f3d011682016040523d82523d6000602084013e610492565b606091505b50509050806104d6576040517f08c379a00000000000000000000000000000000000000000000000000000000081526004016104cd90610fd9565b60405180910390fd5b50505b6105196040518060400160405280601c81526020017f2573206163656e6f7520636f6d206f20656c6f67696f20272573272e000000008152503384610959565b6105976040518060400160405280601e81526020017f25732074656d202573206163656e6f28732920636f6d20656c6f67696f210000815250336000803373ffffffffffffffffffffffffffffffffffffffff1673ffffffffffffffffffffffffffffffffffffffff168152602001908152602001600020546109f8565b3373ffffffffffffffffffffffffffffffffffffffff167f5f7e16dc676677766a70e9c5628aa6c54ddb8b6e5188e2ae1e1f17f1ffbea71642846040516105df929190611014565b60405180910390a25050565b600061061460405180606001604052806027815260200161142260279139600380549050610821565b600380549050905090565b60026020528060005260406000206000915090505481565b60606003805480602002602001604051908101604052809291908181526020016000905b8282101561077f57838290600052602060002090600302016040518060600160405290816000820160009054906101000a900473ffffffffffffffffffffffffffffffffffffffff1673ffffffffffffffffffffffffffffffffffffffff1673ffffffffffffffffffffffffffffffffffffffff1681526020016001820180546106e4906111df565b80601f0160208091040260200160405190810160405280929190818152602001828054610710906111df565b801561075d5780601f106107325761010080835404028352916020019161075d565b820191906000526020600020905b81548152906001019060200180831161074057829003601f168201915b505050505081526020016002820154815250508152602001906001019061065b565b50505050905090565b61081e8160405160240161079c9190610e94565b6040516020818303038152906040527f41304fac000000000000000000000000000000000000000000000000000000007bffffffffffffffffffffffffffffffffffffffffffffffffffffffff19166020820180517bffffffffffffffffffffffffffffffffffffffffffffffffffffffff8381831617835250505050610a97565b50565b6108b98282604051602401610837929190610f69565b6040516020818303038152906040527f9710a9d0000000000000000000000000000000000000000000000000000000007bffffffffffffffffffffffffffffffffffffffffffffffffffffffff19166020820180517bffffffffffffffffffffffffffffffffffffffffffffffffffffffff8381831617835250505050610a97565b5050565b61095582826040516024016108d3929190610eb6565b6040516020818303038152906040527f319af333000000000000000000000000000000000000000000000000000000007bffffffffffffffffffffffffffffffffffffffffffffffffffffffff19166020820180517bffffffffffffffffffffffffffffffffffffffffffffffffffffffff8381831617835250505050610a97565b5050565b6109f383838360405160240161097193929190610ee6565b6040516020818303038152906040527fe0e9ad4f000000000000000000000000000000000000000000000000000000007bffffffffffffffffffffffffffffffffffffffffffffffffffffffff19166020820180517bffffffffffffffffffffffffffffffffffffffffffffffffffffffff8381831617835250505050610a97565b505050565b610a92838383604051602401610a1093929190610f2b565b6040516020818303038152906040527f07c81217000000000000000000000000000000000000000000000000000000007bffffffffffffffffffffffffffffffffffffffffffffffffffffffff19166020820180517bffffffffffffffffffffffffffffffffffffffffffffffffffffffff8381831617835250505050610a97565b505050565b60008151905060006a636f6e736f6c652e6c6f679050602083016000808483855afa5050505050565b828054610acc906111df565b90600052602060002090601f016020900481019282610aee5760008555610b35565b82601f10610b0757805160ff1916838001178555610b35565b82800160010185558215610b35579182015b82811115610b34578251825591602001919060010190610b19565b5b509050610b429190610b46565b5090565b5b80821115610b5f576000816000905550600101610b47565b5090565b6000610b76610b7184611069565b611044565b905082815260208101848484011115610b8e57600080fd5b610b9984828561119d565b509392505050565b600081359050610bb08161140a565b92915050565b600082601f830112610bc757600080fd5b8135610bd7848260208601610b63565b91505092915050565b600060208284031215610bf257600080fd5b6000610c0084828501610ba1565b91505092915050565b600060208284031215610c1b57600080fd5b600082013567ffffffffffffffff811115610c3557600080fd5b610c4184828501610bb6565b91505092915050565b6000610c568383610def565b905092915050565b610c6781611161565b82525050565b610c7681611161565b82525050565b6000610c87826110aa565b610c9181856110cd565b935083602082028501610ca38561109a565b8060005b85811015610cdf5784840389528151610cc08582610c4a565b9450610ccb836110c0565b925060208a01995050600181019050610ca7565b50829750879550505050505092915050565b6000610cfc826110b5565b610d0681856110e9565b9350610d168185602086016111ac565b610d1f8161132f565b840191505092915050565b6000610d35826110b5565b610d3f81856110fa565b9350610d4f8185602086016111ac565b610d588161132f565b840191505092915050565b6000610d706033836110fa565b9150610d7b82611340565b604082019050919050565b6000610d93600a836110fa565b9150610d9e8261138f565b602082019050919050565b6000610db66000836110de565b9150610dc1826113b8565b600082019050919050565b6000610dd96028836110fa565b9150610de4826113bb565b604082019050919050565b6000606083016000830151610e076000860182610c5e565b5060208301518482036020860152610e1f8282610cf1565b9150506040830151610e346040860182610e3f565b508091505092915050565b610e4881611193565b82525050565b610e5781611193565b82525050565b6000610e6882610da9565b9150819050919050565b60006020820190508181036000830152610e8c8184610c7c565b905092915050565b60006020820190508181036000830152610eae8184610d2a565b905092915050565b60006040820190508181036000830152610ed08185610d2a565b9050610edf6020830184610c6d565b9392505050565b60006060820190508181036000830152610f008186610d2a565b9050610f0f6020830185610c6d565b8181036040830152610f218184610d2a565b9050949350505050565b60006060820190508181036000830152610f458186610d2a565b9050610f546020830185610c6d565b610f616040830184610e4e565b949350505050565b60006040820190508181036000830152610f838185610d2a565b9050610f926020830184610e4e565b9392505050565b60006020820190508181036000830152610fb281610d63565b9050919050565b60006020820190508181036000830152610fd281610d86565b9050919050565b60006020820190508181036000830152610ff281610dcc565b9050919050565b600060208201905061100e6000830184610e4e565b92915050565b60006040820190506110296000830185610e4e565b818103602083015261103b8184610d2a565b90509392505050565b600061104e61105f565b905061105a8282611211565b919050565b6000604051905090565b600067ffffffffffffffff82111561108457611083611300565b5b61108d8261132f565b9050602081019050919050565b6000819050602082019050919050565b600081519050919050565b600081519050919050565b6000602082019050919050565b600082825260208201905092915050565b600081905092915050565b600082825260208201905092915050565b600082825260208201905092915050565b600061111682611193565b915061112183611193565b9250827fffffffffffffffffffffffffffffffffffffffffffffffffffffffffffffffff0382111561115657611155611273565b5b828201905092915050565b600061116c82611173565b9050919050565b600073ffffffffffffffffffffffffffffffffffffffff82169050919050565b6000819050919050565b82818337600083830152505050565b60005b838110156111ca5780820151818401526020810190506111af565b838111156111d9576000848401525b50505050565b600060028204905060018216806111f757607f821691505b6020821081141561120b5761120a6112d1565b5b50919050565b61121a8261132f565b810181811067ffffffffffffffff8211171561123957611238611300565b5b80604052505050565b600061124d82611193565b915061125883611193565b925082611268576112676112a2565b5b828206905092915050565b7f4e487b7100000000000000000000000000000000000000000000000000000000600052601160045260246000fd5b7f4e487b7100000000000000000000000000000000000000000000000000000000600052601260045260246000fd5b7f4e487b7100000000000000000000000000000000000000000000000000000000600052602260045260246000fd5b7f4e487b7100000000000000000000000000000000000000000000000000000000600052604160045260246000fd5b6000601f19601f8301169050919050565b7f54656e74616e646f207361636172206d6169732064696e686569726f2071756560008201527f206f20636f6e747261746f20706f737375692e00000000000000000000000000602082015250565b7f4573706572652031356d00000000000000000000000000000000000000000000600082015250565b50565b7f46616c686f7520656d20736163617220646f2064696e686569726f20646f206360008201527f6f6e747261746f2e000000000000000000000000000000000000000000000000602082015250565b61141381611161565b811461141e57600080fd5b5056fe54656d6f7320756d20746f74616c206465202564206163656e6f7320636f6d20656c6f67696f21a26469706673582212201917f6527a5708f8e5cb38bc2f4468e18c1d91fb8debd50e71d6d673503f539d64736f6c63430008040033436f6e747261746f20696e74656c6967656e74652070617261206163656e6172206520656e7669617220656c6f67696f7320696e69636961646f2e2e2e",
  "linkReferences": {},
  "deployedLinkReferences": {}
}